:100000000C94D5010C94990D0C94720D0C94FD0177
:100010000C94FD010C94FD010C94C00D0C94FD0199
:100020000C94FD010C94FD010C94FD010C94FD0158
:100030000C94FD010C94FD010C94FD010C94FD0148
:100040000C94280D0C94FD010C94F60C0C94D00C1F
:100050000C94FD010C94FD010C94FD010C94FD0128
:100060000C94FD010C94FD0100407A10F35A00A09D
:10007000724E18090010A5D4E80000E87648170071
:1000800000E40B54020000CA9A3B000000E1F505B1
:10009000000080969800000040420F000000A086FB
:1000A00001000000102700000000E803000000002D
:1000B0006400000000000A000000000001000000D1
:1000C00000002C76D888DC674F0823DFC1DFAE59EB
:1000D000E1B1B796E5E3E453C63AE651997696E87E
:1000E000E6C28426EB898C9B62ED407C6FFCEFBC02
:1000F0009C9F40F2BAA56FA5F490055A2AF75C932D
:100100006B6CF9676DC11BFCE0E40D47FEF520E662
:10011000B500D0ED902E0300943577050080841E45
:10012000080000204E0A000000C80C333333330FA0
:10013000986E12831141EF8D2114893BE65516CF3D
:10014000FEE6DB18D1844B381BF77C1D901DA4BB49
:10015000E424203284725E228100C9F124ECA1E5FE
:100160003D27303B3235353B25753B303B25753BD4
:100170000025753B25753B25753B25753B25753B56
:1001800025730A004D434F3A534C503A5755503D52
:1001900025690A004D434F3A534C503A4D533D2583
:1001A0006C752C534D533D25752C49313D25752CCF
:1001B0004D313D25752C49323D25752C4D323D255F
:1001C000750A004D434F3A5245473A4E4F54204E20
:1001D00045454445440A004D434F3A42474E3A494B
:1001E0004E4954204F4B2C5453503D4E410A004D24
:1001F000434F3A42474E3A5354500A004D434F3A08
:1002000042474E3A4246520A004D434F3A42474E09
:100210003A494E49542047572C43503D522D4E47A2
:10022000412D2D2D2C46513D25752C52454C3D25FB
:10023000752C5645523D322E332E320A00214D4345
:100240004F3A50524F3A52433D25750A0000000084
:100250000800020100000304070000000000000085
:1002600000005EBCE2613FDD83C29C7E20A3FD1FD7
:10027000419DC3217FFCA2401E5F01E3BD3E608221
:10028000DC237D9FC1421CFEA0E1BF5D0380DE3CFC
:1002900062BEE0025CDF81633D7C22C09E1D43A103
:1002A000FF4618FAA427799BC584DA3866E5BB595E
:1002B00007DB856739BAE406581947A5FB7826C4D9
:1002C0009A653BD987045AB8E6A7F91B45C6987AC0
:1002D00024F8A6441A99C7257B3A6486D85B05E7BB
:1002E000B98CD2306EEDB3510F4E10F2AC2F71932A
:1002F000CD114FADF3702ECC92D38D6F31B2EC0E89
:1003000050AFF1134DCE90722C6D33D18F0C52B093
:10031000EE326C8ED0530DEFB1F0AE4C1291CF2D6A
:1003200073CA947628ABF517490856B4EA6937D5ED
:100330008B5709EBB536688AD495CB2977F4AA4850
:1003400016E9B7550B88D6346A2B7597C94A14F647
:10035000A8742AC896154BA9F7B6E80A54D7896B32
:100360003500000000250028002B000000000024BC
:100370000027002A000000000023002600290004B6
:10038000040404040404040202020202020303033C
:100390000303030102040810204080010204081036
:1003A0002001020408102000DF0D11241FBECFEF32
:1003B000D8E0DEBFCDBF12E0A0E0B1E0E0EAF4E3B8
:1003C00002C005900D92A435B107D9F724E0A4E549
:1003D000B2E001C01D92AA3FB207E1F711E0C5EDFE
:1003E000D1E004C02197FE010E94301AC43DD1071C
:1003F000C9F70E94B30E0C944E1A0C940000AF92F1
:10040000BF92CF92DF92EF92FF920F931F93CF9301
:10041000DF936C017B018B01040F151FEB015E0163
:10042000AE18BF08C017D10759F06991D601ED91F8
:10043000FC910190F081E02DC6010995892B79F797
:10044000C501DF91CF911F910F91FF90EF90DF9049
:10045000CF90BF90AF900895FC01538D448D252F10
:1004600030E0842F90E0821B930B541710F0CF964E
:10047000089501970895FC01918D828D981761F080
:10048000A28DAE0FBF2FB11D5D968C91928D9F5F97
:100490009F73928F90E008958FEF9FEF0895FC0176
:1004A000918D828D981731F0828DE80FF11D858D29
:1004B00090E008958FEF9FEF0895FC01918D228DBC
:1004C000892F90E0805C9F4F821B91098F73992741
:1004D000089582E793E00E945D0221E0892B09F4F0
:1004E00020E0822F0895FC01A48DA80FB92FB11D23
:1004F000A35ABF4F2C91848D90E001968F7399275A
:10050000848FA689B7892C93A089B1898C91837037
:1005100080648C93938D848D981306C00288F38930
:10052000E02D80818F7D80830895EF92FF920F935D
:100530001F93CF93DF93EC0181E0888F9B8D8C8D8F
:1005400098131AC0E889F989808185FF15C09FB783
:10055000F894EE89FF896083E889F9898081837046
:10056000806480839FBF81E090E0DF91CF911F91F5
:100570000F91FF90EF900895F62E0B8D10E00F5F16
:100580001F4F0F731127E02E8C8D8E110CC00FB6EC
:1005900007FCFACFE889F989808185FFF5CFCE0184
:1005A0000E947302F1CFEB8DEC0FFD2FF11DE35A8A
:1005B000FF4FF0829FB7F8940B8FEA89FB89808107
:1005C0008062CFCFCF93DF93EC01888D8823B9F081
:1005D000AA89BB89E889F9898C9185FD03C080814E
:1005E00086FD0DC00FB607FCF7CF8C9185FFF2CFCB
:1005F000808185FFEDCFCE010E947302E9CFDF91AC
:10060000CF91089580E090E0892B29F00E94690243
:1006100081110C940000089590E0FC01E35BFD4F14
:100620002491FC01ED56FC4F3491FC01E158FC4F44
:10063000E491EE23C9F0222339F0233001F1A8F42C
:10064000213019F1223029F1F0E0EE0FFF1FEF59B0
:10065000FC4FA591B4918FB7F894EC91611126C02D
:1006600030953E233C938FBF08952730A9F0283062
:10067000C9F0243049F7809180008F7D03C08091BC
:1006800080008F7780938000DFCF84B58F7784BD23
:10069000DBCF84B58F7DFBCF8091B0008F778093C7
:1006A000B000D2CF8091B0008F7DF9CF3E2BDACF52
:1006B0003FB7F89480916A0390916B03A0916C030B
:1006C000B0916D0326B5A89B05C02F3F19F0019688
:1006D000A11DB11D3FBFBA2FA92F982F8827BC019C
:1006E000CD01620F711D811D911D42E0660F771FC4
:1006F000881F991F4A95D1F708958F929F92AF92C4
:10070000BF92CF92DF92EF92FF926B017C010E9429
:1007100058034B015C01C114D104E104F104B9F0A8
:100720000E945803681979098A099B09683E734039
:100730008105910580F321E0C21AD108E108F10892
:1007400088EE880E83E0981EA11CB11CE4CFFF90B8
:10075000EF90DF90CF90BF90AF909F908F900895D3
:100760000895DC012C911196ED91FC91F894818112
:10077000822B81839281322F30959323928387E05D
:1007800090E00197F1F781818323818383E290E0F8
:100790000197F1F790817894EFECF0E03197F1F761
:1007A000922381E009F480E00895FC0190810180AA
:1007B000F281E02D292F209560FF14C0F8948281EA
:1007C000822382838181892B8183A3E2B0E0119708
:1007D000F1F78281982B9283789487ED90E00197CE
:1007E000F1F70895F8948281822382838181892B95
:1007F0008183AFEFB0E01197F1F78281982B92835C
:1008000078948FE090E0EBCFDF92EF92FF920F931E
:100810001F93CF93DF93EC01D62EE42E08E010E077
:10082000FF24F39461E08D2D8F2109F460E0CE0167
:100830000E94D503FF0C01501109A1F7E11010C06F
:10084000F894E981FA819181888180958923818357
:10085000E981FA81928188818095892382837894C5
:10086000DF91CF911F910F91FF90EF90DF9008954E
:10087000EF92FF920F931F93CF93DF938C017B0135
:1008800040E065E50E940404E70188E0E80EF11C01
:10089000699140E0C8010E940404CE15DF05C1F74C
:1008A000DF91CF911F910F91FF90EF900895FC0180
:1008B00090810180F281E02DF8948181292F20958B
:1008C0008223818378943DE743E050E0315029F161
:1008D000DA011197F1F780818923C1F3F8948281BD
:1008E000822382838181892B81837894ABE7B7E06F
:1008F0001197F1F7F894818182238183A3E1B1E01C
:100900001197F1F78081982381E009F080E07894D5
:10091000E3E6F6E03197F1F7089580E008956F92ED
:100920007F928F929F92AF92BF92CF92DF92EF927F
:10093000FF920F931F93CF93DF938C01EB01809174
:100940007B0490917C040E945704811102C080E0D6
:1009500050C0B80180917B0490917C040E943804BF
:1009600040E06EEB80917B0490917C040E94040433
:100970008E016E0189E0C80ED11C7E01A0907B041F
:10098000B0907C0488E0882E912C712C66246394AE
:10099000C5010E94B10381117628660CA1E08A1A74
:1009A0009108B1F7F70171927F01EC15FD0531F760
:1009B00080917B0490917C040E945704813039F629
:1009C000FE018191811104C0EE16FF06D1F7BFCF61
:1009D00089E090E0815049F0D801ED918D01E9273F
:1009E000F0E0EF59FD4F9491F5CF81E02885291370
:1009F000AECFDF91CF911F910F91FF90EF90DF90DD
:100A0000CF90BF90AF909F908F907F906F90089500
:100A1000FC01838187708860838384818F71806209
:100A200084836783CF010895CF93C82F82E793E033
:100A30000E94E20280917A008F7780937A00209161
:100A40006000CF3F09F439C034E0C39FC0011124D6
:100A50008072C770C860C82B88E10FB6F894A8955B
:100A6000809360000FBEC09360008091600080653D
:100A70008093600083B7817F846083BFF89483B7DD
:100A8000816083BF85B7806685BF8F7D85BF789481
:100A9000889583B78E7F83BFF894A8958091600076
:100AA00088618093600020936000789480917A0040
:100AB000806880937A00CF9108950FB6F894A89536
:100AC00080916000886180936000109260000FBE8A
:100AD000D1CF8F929F92AF92BF92CF92DF92EF923F
:100AE000FF92CF93DF93611571058105910509F49C
:100AF00042C06B017C012FE0C20ED11CE11CF11C35
:100B0000C1E0D0E0809102018F3F31F480E1C8164E
:100B1000D104E104F104B0F480910201809102015A
:100B20008F3F69F1809102019FEF90930201DF9165
:100B3000CF91FF90EF90DF90CF90BF90AF909F90BC
:100B40008F90089589E094E0980F4E0102C0880CC0
:100B5000991C9A95E2F7B12CA12CC814D904EA0487
:100B6000FB0438F00E941405C818D908EA08FB08ED
:100B7000C9CF8150E8CF8FEF0E941405CFCF8FEF00
:100B8000D3CFFC0101900020E9F73197AF01481B5A
:100B9000590BBC0182E793E00C94FF018F929F9266
:100BA000AF92BF920F931F93CF93DF93CDB7DEB772
:100BB000A1970FB6F894DEBF0FBECDBF19A2423089
:100BC00008F44AE08E010F5D1F4F842E912CB12C4A
:100BD000A12CA50194010E94FA19E62FB901CA01BE
:100BE000EA30F4F4E05DD801EE938D01232B242B41
:100BF000252B79F790E080E0109719F0CD010E9445
:100C0000C105A1960FB6F894DEBF0FBECDBFDF9130
:100C1000CF911F910F91BF90AF909F908F900895AB
:100C2000E95CE1CFCF92DF92EF92FF92CF93DF9317
:100C30006B017C016DE282E793E00E949502EC017A
:100C400066277727CB016C197D098E099F094AE039
:100C50000E94CE058C0F9D1FDF91CF91FF90EF90EA
:100C6000DF90CF9008950F931F93CF93DF938C0164
:100C700080E06115710551F0EB0109900020E9F762
:100C800021978C2F861B8A3108F089E1F801C381F6
:100C9000C770F8E08F9FC0011124C82BF801C383EF
:100CA00084818F718483C695C695C695CA3108F034
:100CB000C9E1D0E0AE01C80107960E943F1AC00FFB
:100CC000D11F1F82C801DF91CF911F910F9108950D
:100CD0000F931F93CF93DF93EC018C8182958695C0
:100CE0008770D9F44B814695469546954A3108F070
:100CF00049E150E0BE01695F7F4F8CEC92E00E94B9
:100D00003F1AEB81E695E695E695EA3108F0E9E1D0
:100D1000F0E0E453FD4F108209C08130E1F58F818E
:100D20004AE06CEC72E090E00E941D128C812CEC89
:100D300032E03F932F939D811F929F9384FB9927CD
:100D400090F91F929F9387701F928F938E811F92AD
:100D50008F9389811F928F9381E791E09F938F9367
:100D60001F9288E78F9384E592E09F938F930E9470
:100D7000901284E592E00E94C1058DB79EB742961D
:100D80000FB6F8949EBF0FBE8DBF81E0DF91CF916B
:100D90001F910F910895823031F44AE06CEC72E0BB
:100DA0008F819885C1CF833041F44AE06CEC72E0CA
:100DB0008F8198850E947612B9CF843051F46F816B
:100DC000788589859A852AE04CEC52E00E942812A9
:100DD000ADCF853051F46F81788589859A852AE079
:100DE0004CEC52E00E945412A1CF20E0873071F405
:100DF0002B85293008F028E06F81788589859A85D0
:100E00000CEC12E042E00E94931190CFEB81E6954A
:100E1000E695E695EA3108F0E9E12E1738F5E22F7C
:100E2000F0E0AF01440F551FDA01A453BD4FEC0FA2
:100E3000FD1F8781082E000C990B34E0959587954E
:100E40003A95E1F78F708A3068F4805D8C93435354
:100E50005D4F87818F708A3038F4805DFA0180831E
:100E60002F5FD4CF895CF2CF895CF8CFF0E0EE0F32
:100E7000FF1F4FCFFC012281211102C00C94680694
:100E800080E00895FC0111829481907F91609483A9
:100E9000CF010C943A077F928F929F92AF92BF92AC
:100EA000CF92DF92EF92FF920F931F93CF93DF9336
:100EB000FC01C5812EEF2C0F223008F01CC10796D3
:100EC0000E94B11121E030E0C23011F424E630E09C
:100ED000289F8001299F100D389F100D1124902FFD
:100EE000812F0536110514F094E680E0C92FD82F24
:100EF000D7FF02C0D0E0C0E087E991E00E94C105C1
:100F00004AE0BE010D2E000C880B990B0E94CE0505
:100F10008AEA91E00E94C1056091FF02709100038E
:100F2000072E000C880B990B97FF6BC00E941206CE
:100F300082EB91E00E94C1058091FF029091000335
:100F40009E01281B390BEE24E394F12C37FF03C0DC
:100F5000EE24EA94FE2C76E9C72E73E0D72EE2E861
:100F6000AE2EE3E0BE2EF0E58F2EF2E09F2E6091D4
:100F7000FF0270910003C617D70709F48CC06E0DED
:100F80007F1D709300036093FF02072E000C880BF7
:100F9000990B0E94B81720E030E048EC52E40E9420
:100FA0003E1920E030E04FE753E40E9417180E94FA
:100FB000B019AB01CB01F6017490F5012491222305
:100FC00099F030E0220F331FF901E559FC4FA5914C
:100FD000B491F901EF59FC4F259134912FB7F89452
:100FE0003C91732A7C922FBF009779F460E083E0F4
:100FF0000E940C036AE070E080E090E00E947D03B4
:10100000B6CF4AE00E94CE0593CF8F3F910511F4F1
:1010100061E0EDCFF4012491233019F140F4213047
:10102000B1F02230C9F08038910594F7DFCF273036
:1010300011F1283041F12430B1F7809180008062B5
:101040008093800050938B0040938A00D3CF84B567
:10105000806884BD47BDCECF84B5806284BD48BD65
:10106000C9CF809180008068809380005093890070
:1010700040938800BFCF8091B00080688093B0001B
:101080004093B300B7CF8091B00080628093B000EE
:101090004093B400AFCF61E0101611060CF060E091
:1010A0008FE094E00E9408050E9442072091FF0211
:1010B0003091000380913304877080618093330402
:1010C000809134048F7180648093340430933804A9
:1010D0002093370480E394E0DF91CF911F910F912B
:1010E000FF90EF90DF90CF90BF90AF909F908F9048
:1010F0007F900C944207DF91CF911F910F91FF9049
:10110000EF90DF90CF90BF90AF909F908F907F90A7
:1011100008958FB7F89440916E0350916F036091DA
:101120007003709171038FBFE7E9F4E011821282BE
:101130008FEF868386E185838381877080628383D6
:1011400083EA84834783508761877287CF010C9439
:101150003A07109298041092990480939D0460932A
:101160009C0490919B04907E90939B048F3F11F47C
:1011700045EB51E0BA0187E994E00E9433060C94F4
:101180003A070F931F93CF931092980410929904EB
:10119000CFEFC0939D048BE080939C0480919B04CF
:1011A000807E836080939B046BEB71E087E994E021
:1011B0000E9433060E943A071092980410929904F4
:1011C000C0939D048CE080939C0480919B04807E5E
:1011D000836080939B0463EC71E087E994E00E9454
:1011E00033060E943A074FEC51E064E070E08AE079
:1011F0000E94A90807E511E0C0E0F801428153818F
:1012000066E070E08C2F0E94A9080C5F1F4FCF5F33
:10121000CA3099F7CF911F910F91089544EB51E097
:1012200061E170E08FEF0E94A9080C94C1089F92C1
:10123000AF92BF92CF92DF92EF92FF920F931F93E4
:10124000CF93DF93CDB7DEB761970FB6F894DEBFCB
:101250000FBECDBF10929804109299048AE080933B
:101260009D0483E080939C0480919B04807E826037
:1012700080939B0464EB71E087E994E00E9433065D
:101280000E943A07E0917B04F0917C041386158656
:101290001486128611861086178216821582148291
:1012A00013821092790410927A04DD24D394CC2412
:1012B000C39400917B0410917C04D8011D96AC90DE
:1012C000AA2029F1F80113861586148680E0A8016A
:1012D0004D5F5F4FDE011A96055F1F4F9D017D0137
:1012E000FA019191AF01F90191939F0140175107C4
:1012F000B9F78823D1F098E080E0915009F48BC0D1
:10130000ED91E827F0E0EF59FD4F8491F6CFC80149
:101310000E94570481111DC0D8011B961C921B9777
:101320001D961C921D971C961C9210927604619635
:101330000FB6F894DEBF0FBECDBFDF91CF911F91E6
:101340000F91FF90EF90DF90CF90BF90AF909F9064
:10135000089540E060EFC8010E940404912CEE243F
:10136000E394FF24F394C8010E94B103B82EC8018E
:101370000E94B103B1E0BB1215C08130A9F5E0E4D1
:10138000EF1508F09FCFD8011B96AC921B97A110C8
:1013900002C01D96DC92F8018381882309F492CF64
:1013A00081E095CFE92DF0E0B81214C0D8011B966A
:1013B0008C911B97F816B0F4AE0FBF1F13968C914B
:1013C0008E2191F4B12CB8E0BF1518F0D8011C960D
:1013D000FC92AF2CE00FF11F83819E2D9095892305
:1013E00083830AC08F11EECFF801E90DF11D8381CF
:1013F0008E298383BB24B3946B2DC8010E94D5032F
:10140000F394EE0C19F49394EE24E394B7E0B91539
:1014100008F0A9CFB4CF998998134BCF8091790464
:101420008F5F809379048A85883239F008F047C04D
:10143000803119F0823209F03CCF80917A048F5FBD
:1014400080937A0480917204811126C080917B047C
:1014500090917C040E945704B70180917B04909185
:101460007C040E94380440E064EB80917B049091FE
:101470007C040E94040480917B0490917C040E946F
:10148000B103182F80917B0490917C040E94570433
:10149000111102C0C09272048A858031D9F0BE0158
:1014A0006F5F7F4FC7010E948F04882331F08D81C9
:1014B0008F3391F058F48F31C1F080E00EC08B3340
:1014C00009F4BBCF823409F0F4CEB7CF8F3579F071
:1014D0008F3799F78CE001C08AE0909175049817D6
:1014E00008F0E7CE80937504E4CE89E0F6CF8BE078
:1014F000F4CFCF92DF92EF92FF920F931F93CF938F
:10150000DF93CDB7DEB7C857D1090FB6F894DEBF69
:101510000FBECDBFCE018D579F4FFC01C190D19022
:101520007F011F9289E08F931F9283E08F9382E661
:1015300091E09F938F931F9288E78F938E010F5FA7
:101540001F4F1F930F930E949012C8010E94C10564
:101550002FB7F89460916E0370916F0380917003C0
:10156000909171032FBF4AE00E94CE0580EB91E07D
:101570000E94C1059701A60168E770E0C8010E94BA
:10158000C0128AE0E8968FAFE897E9961FAEE99718
:10159000C8010E94C10582E793E00E94E2020FB6F3
:1015A000F894DEBF0FBECDBFC858DF4F0FB6F8941A
:1015B000DEBF0FBECDBFDF91CF911F910F91FF9086
:1015C000EF90DF90CF9008958F929F92AF92BF924D
:1015D000CF92DF92EF92FF920F931F93CF93DF93FF
:1015E000CDB7DEB729970FB6F894DEBF0FBECDBFDB
:1015F0000E94890861E08091FF0290910003181613
:1016000019060CF060E08FE094E00E9408050E944B
:1016100042072091FF0230910003809133048770CC
:10162000806180933304809134048F71806480934F
:101630003404309338042093370480E394E00E940C
:10164000420780917B0490917C040E94570440E003
:101650006CEC80917B0490917C040E940404409186
:10166000720464E480917B0490917C040E940404E1
:1016700080917604882391F1E0917504809177043C
:10168000882309F479C080917204811175C08FB7E5
:10169000F894C0906E03D0906F03E0907003F090C8
:1016A00071038FBF80917B0490917C040E94B103F1
:1016B0008130A1F02FB7F89480916E0390916F0361
:1016C000A0917003B09171032FBF8C199D09AE09D1
:1016D000BF098E3E9240A105B10520F3E09175044B
:1016E000E9508EEE92E0E33038F4F0E0EE0FFF1FA9
:1016F000E158FE4F808191816C01990FEE08FF083F
:101700001F928FEF8F931F928F931F928F931F9231
:101710008F931F921F92FF92EF92DF92CF9284E9F4
:1017200091E09F938F930E94790AC701B6010E94AE
:101730006905282F082E000C330B3F938F9384E804
:1017400091E09F938F930E94790A03E011E00FB616
:10175000F894DEBF0FBECDBFF12CEE24E394BE01A2
:101760006F5F7F4FC8010E948F0481112DC060E020
:1017700070E08EEF92EC67C0E9508EEE92E0E330BD
:1017800038F4F0E0EE0FFF1FE158FE4F80819181A9
:101790006C01990FEE08FF0880917304882329F0EB
:1017A00060E0809174040E940C03C701B6010E949E
:1017B0007D0380917304882309F490CF61E08091C8
:1017C00074040E940C038ACF6A8170E0762F66272A
:1017D000770F770F770F298158E0259F900111240B
:1017E000262B372BF80180818031E1F46885662350
:1017F000C9F070E08F81AB01481B5109CA01969571
:10180000982F8827979587950E94E619CB01809796
:10181000B90153E0660F771F5A95E1F760789C0194
:10182000260F371F213854EE35070CF4A0CFB9012D
:10183000330F880B990B0E94B81720E030E040E08E
:101840005CE30E94171820E030E040E251E40E947F
:1018500017180E94B019072E000C880B990B0E94D4
:10186000B81720E030E040E251E40E943E194B01FD
:101870005C0120E030E04EEF52EC0E94B11788236B
:1018800029F120E030E04AEA52E4C501B4010E94A7
:10189000B1178823D9F0F0925704809154048770CF
:1018A00088628093540480915504806E809355041F
:1018B0008092580490925904A0925A04B0925B040A
:1018C000E0925C0481E594E00E944207085F1F4FAC
:1018D000F3948AE0F81243CF1F921FEF1F931F92D9
:1018E0001F931F921F931F921F931F9281E08F934C
:1018F0001F921F9283E08F9388EE8F9384E991E08B
:101900009F938F930E94790A68EE73E080E090E0E5
:101910000E946905282F082E000C330B3F938F93EC
:1019200084E891E09F938F930E94790A1092980423
:101930001092990410939D0481E280939C048091FD
:101940009A048770806280939A0483EA80939B0450
:1019500088EE93E0A0E0B0E080939E0490939F0413
:10196000A093A004B093A10487E994E00E943A07F1
:101970000FB6F894DEBF0FBECDBF29960FB6F89410
:10198000DEBF0FBECDBFDF91CF911F910F91FF90B2
:10199000EF90DF90CF90BF90AF909F908F90089581
:1019A0001F920F920FB60F9211242F933F934F93D4
:1019B0005F936F937F938F939F93AF93BF93EF93B7
:1019C000FF9382E793E00E947302FF91EF91BF9132
:1019D000AF919F918F917F916F915F914F913F91C7
:1019E0002F910F900FBE0F901F9018951F920F927E
:1019F0000FB60F9211242F938F939F93EF93FF9322
:101A0000E0918203F09183038081E0918803F0915B
:101A1000890382FD1BC0908180918B038F5F8F7340
:101A200020918C03821741F0E0918B03F0E0EE5897
:101A3000FC4F958F80938B03FF91EF919F918F9136
:101A40002F910F900FBE0F901F9018958081F4CFAB
:101A50001F920F920FB60F9211242F933F938F93E3
:101A60009F93AF93BF9380916E0390916F03A0916A
:101A70007003B09171033091690323E0230F2D3778
:101A800058F50196A11DB11D2093690380936E0343
:101A900090936F03A0937003B093710380916A03D6
:101AA00090916B03A0916C03B0916D030196A11D01
:101AB000B11D80936A0390936B03A0936C03B09362
:101AC0006D03BF91AF919F918F913F912F910F9097
:101AD0000FBE0F901F90189526E8230F0296A11DA8
:101AE000B11DD2CF1F920F920FB60F9211242F93D8
:101AF0003F934F935F936F937F938F939F93AF9396
:101B0000BF93EF93FF93E0915501F0915601099532
:101B1000FF91EF91BF91AF919F918F917F916F91C5
:101B20005F914F913F912F910F900FBE0F901F909B
:101B300018951F920F920FB60F9211242F933F9377
:101B40004F935F936F937F938F939F93AF93BF93C5
:101B5000EF93FF93E0915301F09154010995FF91A8
:101B6000EF91BF91AF919F918F917F916F915F9115
:101B70004F913F912F910F900FBE0F901F9018958E
:101B80001F920F920FB60F9211240F900FBE0F905D
:101B90001F901895CF93DF93FC011082118212825F
:101BA000148215821682DC0117968AE1ED011992E2
:101BB0008A95E9F782E08383DF91CF910895CF93EF
:101BC000DF93109275031092740388EE93E0A0E007
:101BD000B0E08093760390937703A0937803B0935B
:101BE000790389E891E0909373038093720385EC05
:101BF00090E090937F0380937E0384EC90E0909339
:101C000081038093800380EC90E090938303809322
:101C1000820381EC90E0909385038093840382ECAF
:101C200090E0909387038093860386EC90E09093F6
:101C300089038093880310928B0310928C03109277
:101C40008D0310928E0389ED94E00E94CA0D88EBFB
:101C500094E00E94CA0D87E994E00E94CA0D47E90A
:101C600053E0FA01649183E893E0FC01249122237C
:101C7000C1F030E0220F331FF901E559FC4FA59167
:101C8000B491F901EF59FC4FC591D4917FB7F89405
:101C90003C91262F209532233C933881232328839F
:101CA0007FBFFA01449140938904FC018491E82F9D
:101CB000F0E0EE0FFF1FEB58FC4F8591949190934D
:101CC0008B0480938A0410929404109296041092CC
:101CD0009504109293041092920410929104109221
:101CE000900410928F0410928E0410928D04109222
:101CF0008C0410928804109287041092730489E86F
:101D000094E090937C0480937B0410927904109269
:101D10007A041092720489E08093750481E08093C4
:101D20007604809377048093780481E594E00E94A0
:101D3000CA0D109257041092560480E394E00E945A
:101D4000CA0DCAE0C093360483E0809335048FE067
:101D500094E00E94CA0DC093150482E0809314049D
:101D6000DF91CF910895CF93DF93CDB7DEB76B9717
:101D70000FB6F894DEBF0FBECDBF789484B58260F5
:101D800084BD84B5816084BD85B5826085BD85B51F
:101D9000816085BD80916E00816080936E0010929D
:101DA0008100809181008260809381008091810018
:101DB00081608093810080918000816080938000A9
:101DC0008091B10084608093B1008091B000816007
:101DD0008093B00080917A00846080937A00809133
:101DE0007A00826080937A0080917A00816080938B
:101DF0007A0080917A00806880937A001092C10006
:101E0000A89580E090E0892B11F00E940000E091FD
:101E10008203F091830382E08083E0917E03F0915E
:101E20007F031082E0918003F091810390E1908321
:101E300010928A03E0918603F091870386E0808305
:101E4000E0918403F0918503808180618083E0913B
:101E50008403F0918503808188608083E09184030E
:101E6000F0918503808180688083E0918403F09104
:101E7000850380818F7D80831F928FEF8F931F92C8
:101E80009F9389E092E09F938F930E94790A8091BB
:101E900067038D7F809367030F900F900F900F90D3
:101EA0000F900F9080E090E0892B51F08CEF91E043
:101EB0009F938F930E94790A0E9400000F900F90C9
:101EC00041E050E063E071E086E693E00E94D518BF
:101ED00010929804109299048FEF80939D048EE0E5
:101EE00080939C0480919B04807E836080939B04FC
:101EF0006BED71E087E994E00E9433060E9468066A
:101F00000E940E098FEE91E09F938F930E94790AB1
:101F10000E941709809167030F900F9081FD10C0F8
:101F200081608093670383EC91E09F938F930E947D
:101F3000790A809167038260809367030F900F9006
:101F400087ED91E09F938F930E94790AA8950F9057
:101F50000F90EDE36E2EE2E07E2E70E0E72E70E053
:101F6000F72EBB24BA945BE1A52E60E0C62E60E09C
:101F7000D62E80916803882351F01F928F937F9211
:101F80006F920E94790A0F900F900F900F9080919E
:101F900068038F5F80936803A89582E793E00E94AF
:101FA0005D02892B09F4DFC082E793E00E943B02C7
:101FB00090916503933608F002C1E92FF0E0EF5FDE
:101FC000FC4F8A3009F0F6C010821092DA041092A9
:101FD000D9048091DD048F7E8093DD04AE01465EDE
:101FE0005F4F65EF71E081E093E00E94F61147E0FA
:101FF000842E912C10E0009709F48AC1153009F461
:1020000066C10E94B1111230D1F078F41130A1F004
:102010008093DB04AE01465E5F4F65EF71E090E0B8
:1020200080E00E94F6111F5FE6CF133091F014306C
:1020300079F78093DE04EECF8093DF04EBCF4C0181
:102040008091DD04887F982D9770892B8093DD0423
:10205000E1CF2091DD04277F41E050E0892B11F48E
:1020600050E040E0CA0133E0880F991F3A95E1F74C
:10207000822BECCF913614F0975538C1975336C167
:10208000213614F0275539C1275337C14091DC045C
:1020900047708A3108F089E128E0829FC00111244D
:1020A000482B4093DC048091DD048F71806C809319
:1020B000DD044695469546954A3108F049E150E0E1
:1020C000BE016F5F7F4F80EE94E00E94361A10923F
:1020D000650381E2E9EDF4E0A8EBB4E001900D9234
:1020E0008A95E1F71091BA0411113DC08091BC04AA
:1020F00083FF17C091E2E8EBF4E0A7E9B4E00190B8
:102100000D929A95E1F7877E806180939B041092EF
:1021100098048091B9048093990487E994E00E941F
:1021200068068091BC04982F9770933009F0CAC05C
:102130009091BD04923009F045C01092980410921D
:102140009904B0929D0490939C0480919B04807E9E
:10215000836080939B0465EB71E087E994E00E94C3
:1021600033060E946806809168038150809368035B
:102170000E94E40AC114D10409F4FBCE0E94690252
:10218000882309F4EECE0E940000E7CE01900020E3
:10219000E9F7E81BE250E80FF92FF11D20812D30FF
:1021A00011F02A3009F41082BC0189ED94E00E94FC
:1021B00033068DCF80839F5F90936503EECE1092A0
:1021C0006503EBCE8090B904811051C09D3059F465
:1021D00088E198E00FB6F894A895809360000FBE50
:1021E00090936000FFCF9B3109F4BDCF963099F4F6
:1021F0009091BF0481E0992319F09D3409F080E0AB
:102200008093660341E050E063E071E086E693E08E
:102210000E94E518A8CF933119F40E940E09A3CFAC
:10222000923119F40E9489089ECF913009F09BCF1A
:10223000E114F10409F497CF829586958770853073
:1022400059F46091BF047091C0048091C1049091D1
:10225000C2040E94000087CF811105C08FEB94E07B
:102260000E94CF11F6CF60E070E0CB01F2CF9A313F
:1022700009F079CF8295869587708130D9F41091D5
:10228000BF041092980480929904B0929D04A09289
:102290009C0480919B04807E836080939B0461E01A
:1022A000123008F460E087E994E00E9408050E947B
:1022B0003A0759CF8111E5CF8FEB94E00E94B1111D
:1022C000182FDFCF88EB94E00E944B074CCFFC0126
:1022D00024E08216910409F059CF80E0908199237F
:1022E00009F4D4CE9A330CF0C5CE90539295907FDA
:1022F00021812A330CF0C4CE2053A1E0B0E0AC0F12
:10230000BD1FA80FB11D920F9C938F5F3296E6CF31
:1023100060E089ED94E00E94080510926503153095
:1023200009F4D7CE20CFEF920F931F93CF93DF9373
:10233000E80134E047FD34E1042E000C550B57FF53
:1023400003C0519541955109E32E022F242FAE0170
:102350000E94C614CE01DF91CF911F910F91EF9093
:102360000895FC0188279927E89421912032E9F308
:10237000293010F02E30C8F32B3241F02D3239F4D1
:10238000689404C00E944C12820F911D2191205329
:102390002A30C0F31EF4909581959F4F08951F93A6
:1023A000FC0199278827BC01E89411911032E9F3C8
:1023B000193010F01E30C8F31B3251F01D3249F4B1
:1023C000689406C00E943712610F711D811D911D16
:1023D000119110531A30B0F33EF49095809570959A
:1023E00061957F4F8F4F9F4F1F910895FA01A191E3
:1023F000B081009719F41097E1F0CD01DC01CD0117
:102400000D90002011F4C00113C0FB012191222383
:1024100019F02015D9F7F3CFFB012191201519F4FC
:102420001E92119606C02223C1F70D900020A1F73D
:10243000D001FA01A193B0830895BB274A3031F44B
:10244000992322F4BDE2909581959F4F0C947712C9
:10245000BB272A3051F4992342F4BDE29095809530
:10246000709561957F4F8F4F9F4F0C945512592F48
:10247000482F372F262F660F771F881F991F660F4B
:10248000771F881F991F620F731F841F951F660F88
:10249000771F881F991F08957AE0979F902D879F37
:1024A000802D910D11240895BB27FA01A62F6217E4
:1024B000710581059105330B30FB66F0AA27660F85
:1024C000771F881F991FAA1FA21710F0A21B6395E0
:1024D0003850A9F7A05DAA3308F0A95DA19336F79B
:1024E000B111B1931082CA010C941317BB27FB01E1
:1024F0005527AA27880F991FAA1FA41710F0A41BFD
:1025000083955051B9F7A05DAA3308F0A95DA19356
:10251000009779F7B111B1931192CB010C94131775
:10252000AEE0B0E0E6E9F2E10C9415190D891E89E0
:102530008F89988D2EE02C831A83098397FF02C020
:1025400080E090E801979E838D83AE01455E5F4FEA
:10255000698D7A8DCE0101960E94EC124D815E81CB
:1025600057FD0AC02F813885421753070CF49A0192
:10257000020F131FF80110822E96E4E00C9431191B
:10258000AEE0B0E0E6ECF2E10C9415198C01FA0132
:102590008EE08C831A83098377FF02C060E070E8C5
:1025A000615071097E836D83A901BF01CE0101963F
:1025B0000E94EC124D815E8157FD0AC02F81388543
:1025C000421753070CF49A01020F131FF8011082EF
:1025D0002E96E4E00C943119ABE0B0E0E2EFF2E1CA
:1025E0000C9407197C013B018A01FC0117821682B9
:1025F000838181FFC8C1CE0101965C01F7019381FF
:10260000F30193FD859193FF81913F01882309F4A4
:1026100053C1853239F493FD859193FF81913F0138
:10262000853229F4B70190E00E942317E7CF912C5F
:10263000212C312CFFE1F31538F08B3211F190F49D
:10264000803209F1833229F137FC3CC020ED280F9C
:102650002A3050F536FE20C08AE0989E200D1124C5
:10266000922E06C08D3291F0803371F7689430F865
:10267000F30193FD859193FF81913F018111DACFA1
:1026800021C0689431F8689432F8F2CF689433F836
:10269000EFCF689434F8ECCFEAE02E9E200D1124A1
:1026A000222E689435F8E4CF8E3229F436FC04C12A
:1026B000689436F8DDCF8C3619F4689437F8D8CFA3
:1026C0008836B1F2982F9F7D95549330E0F0833691
:1026D000A1F18337C1F1833509F063C02801F2E02D
:1026E0004F0E511CF801C080D180692D70E036FC7E
:1026F00002C06FEF7FEFC6010E94FD164C01689487
:1027000037F882010AC00C5F1F4FFFE3F98388246A
:102710008394912C6501E89437F833FE2DC0522C38
:102720008114910471F5552009F468CFB70180E256
:1027300090E00E9423175A94F6CFF8018081898394
:102740000E5F1F4FE4CF2801F2E04F0E511CF8013D
:10275000C080D180692D70E036FC02C06FEF7FEF42
:10276000C6010E9408174C018201D5CFB70180E253
:1027700090E00E9423172A942814190409F0B0F756
:10278000CECFF60137FC859137FE81916F01B701FD
:1027900090E00E94231751105A94F1E08F1A91088B
:1027A000BFCF843619F0893609F077C0F80137FEBB
:1027B0006BC060817181828193810C5F1F4FF32D0B
:1027C000FF763F2E97FF09C0909580957095619593
:1027D0007F4F8F4F9F4F689437F82AE030E0A50174
:1027E0000E945317C82ECA188C2C432C36FE0CC0DE
:1027F000E89440F8C91440F434FE05C032FC03C02C
:10280000F32DFE7E4F2E892C44FE95C0FE01EC0D6B
:10281000F11D8081803309F087C0242D297E422E4E
:10282000842D8870582E43FC95C040FE8FC09C2C90
:10283000821418F42C0C922C981844FE91C0B70105
:1028400080E390E00E94231742FE09C088E790E0F1
:1028500041FE02C088E590E0B7010E942317C91429
:1028600008F48AC0CA94D12C9FEFC91AD90ACA0C9D
:10287000DB1CF60182916F01B70190E00E942317E3
:10288000AC14BD04B1F74FCF60817181072E000CED
:10289000880B990B0E5F1F4F92CFD32CE894D4F87E
:1028A0002AE030E0853739F1232D297FD22E8F366B
:1028B00001F148F48835A9F0F701868197812B96BC
:1028C000E2E10C942319803749F08837A9F7D4FE48
:1028D00002C06894D2F820E130E00DC06894D4F8CA
:1028E000F6CF34FE03C0822F8660D82E20E132E07E
:1028F00002C028E030E0F801D7FE0FC0608171818E
:10290000828193810C5F1F4FA5010E945317C82E2F
:10291000CA183D2CE89437F867CF6081718190E048
:1029200080E00E5F1F4FF0CF42FC02C0839478CF4F
:102930008394839475CF842D867809F471CFF6CF74
:10294000B70180E290E00E94231783948214C0F3C1
:10295000512C73CF522C5818821408F46ECFF8CF34
:10296000842D867809F47BCF8BE241FE80E247FC20
:102970008DE2B70190E071CFB70180E390E00E9453
:1029800023179A946CCF8FEF9FEF99CFA9E0B0E017
:10299000ECECF4E10C940D196A01F22EB02E102F1C
:1029A000FBE3AF2EA01608F41BE31F5F012F27E007
:1029B000AE014F5F5F4F0E942516BC018981982FA1
:1029C0009970913009F43FC09BE2E1FC04C09E2D58
:1029D0009170E0FC3AC05E2D5071E82FE87083FFE3
:1029E00046C084E0911101C083E0EF2DE81B8F15F4
:1029F00008F0E0E0D6018E2F20E2552351F1992313
:102A000029F0D6019C93C60101966C0196012D5FB9
:102A10003F4FE2FE24C08EE4D6018C9391E41196E0
:102A20009C93119712968C93D9018E2F90E281116D
:102A30001BC0E20FF32FF11D10828EEF9FEF29963E
:102A4000ECE00C9429199DE2C6CF90E2C4CF2D93FF
:102A500081508111FCCFCE0ED11CE0E0D0CF8EE6AC
:102A6000D6018C9391E6DBCF9D938150E0CF482F28
:102A7000447082FF3DC084E0911101C083E08F1556
:102A800010F4EF2DE81BD6018E2F20E2552309F11B
:102A9000992329F0D6019C93C60101966C019601F9
:102AA0002D5F3F4FE2FE1BC089E4D6018C938EE47C
:102AB00011968C93119786E412968C93D9018E2FE0
:102AC00090E2882309F4B5CF9D938150FACF2D93DE
:102AD00081508111FCCFCE0ED11CE0E0D9CF89E628
:102AE000D6018C938EE611968C93119786E6E4CFEF
:102AF0009B0177FF02C030E020E0A1E0B0E091113F
:102B000002C0B0E0A0E0F9013196AE0FBF1F8B2CE0
:102B1000912CBB2009F461C05401EFEFAE1ABE0A3C
:102B2000AA0DBB1DFA161B0619F014F04F2D4A1BF7
:102B3000511188C0E3FC59C07601A42FB0E2A11165
:102B40004FC0C40ED11C992309F45BC040E0D601EC
:102B50001196F60190836D01552309F448C0012FA9
:102B6000060F9A81582F507184FF03C0913309F4E6
:102B7000015010160CF047C0093008F008E0EEE2F2
:102B8000FE2E5B01A01AB1088501919481949108F1
:102B90002F3F320729F4D601FC92F60131966F01DE
:102BA0006217730794F1021713077CF5DB01A21B70
:102BB000B30BAA24A394B12CAC0EBD1EAA0DBB1D51
:102BC00011968C9121503109D6011196281539059D
:102BD000F4F0F60180836D01DBCFB12CA12CA0CFE6
:102BE000F701B1937F01A150AACF9111B0CFD601C7
:102BF000942F50E302C05D9391509111FCCFC40E0D
:102C0000D11C40E0ACCF01E0BACF80E3DBCF62174C
:102C1000730731F4963388F4953311F4552369F032
:102C2000F6018083FD01842F90E2811108C0A40F7A
:102C3000B11D1C9290E080E002CF81E3F1CF91932F
:102C40008150F3CF911183CF8ACF283008F027E04D
:102C50003327DA01990F311D87FD916000966105D8
:102C6000710539F432602E5F3D9330E32A95E1F728
:102C700008959F3F30F080387105610509F03C5F91
:102C80003C5F3D93913008F08068911DDF93CF93B6
:102C90001F930F93FF92EF92192F987F9695E92F2C
:102CA00096959695E90FFF27EE53FF4F9927332707
:102CB000EE24FF24A701E70105900894079428F467
:102CC000360FE71EF81E491F511D660F771F881F1C
:102CD000991F0694A1F70590079428F4E70EF81EB3
:102CE000491F561FC11D770F881F991F661F069425
:102CF000A1F70590079428F4F80E491F561FC71F27
:102D0000D11D880F991F661F771F0694A1F70590A4
:102D1000079420F4490F561FC71FD81F990F661F2D
:102D2000771F881F0694A9F784911095177041F0BA
:102D3000D695C79557954795F794E7941A95C1F797
:102D4000E8E6F0E0689415901591359165919591BC
:102D500005907FE27395E118F10A430B560BC90BFE
:102D6000D009C0F7E10CF11E431F561FC91FD01D2B
:102D70007EF4703311F48A95E6CFE894015030F078
:102D8000080F0AF40027021708F4202F2395022FBA
:102D90007A3328F079E37D932A95E9F710C07D9383
:102DA0002A9589F606949795679537951795179400
:102DB000E118F10A430B560BC90BD00998F0239583
:102DC0007E9173957A3308F070E37C932013B8F703
:102DD0007E9170617D9330F0839571E37D9370E314
:102DE0002A95E1F71124EF90FF900F911F91CF9159
:102DF000DF91992787FD90950895FC01059061501A
:102E000070400110D8F7809590958E0F9F1F089500
:102E1000FC016150704001900110D8F780959095A9
:102E20008E0F9F1F0895DC01FC01672F719177239E
:102E3000E1F7329704C07C916D9370836291AE1775
:102E4000BF07C8F308950F931F93CF93DF93182FF5
:102E5000092FEB018B8181FD09C01FEF0FEF812F3F
:102E6000902FDF91CF911F910F91089582FF14C091
:102E70002E813F818C819D81281739073CF4E881A0
:102E8000F981CF0101969983888310838E819F8178
:102E900001969F838E83E3CFE885F985812F09957D
:102EA000892BA1F3DACFFA01AA27283051F120317A
:102EB00081F1E8946F936E7F6E5F7F4F8F4F9F4FCE
:102EC000AF4FB1E03ED0B4E03CD0670F781F891F10
:102ED0009A1FA11D680F791F8A1F911DA11D6A0FDE
:102EE000711D811D911DA11D20D009F468943F9191
:102EF0002AE0269F11243019305D3193DEF6CF0190
:102F00000895462F4770405D4193B3E00FD0C9F755
:102F1000F6CF462F4F70405D4A3318F0495D31FDC2
:102F20004052419302D0A9F7EACFB4E0A695979515
:102F3000879577956795BA95C9F7009761057105EB
:102F400008959B01AC010A2E069457954795379535
:102F50002795BA95C9F7620F731F841F951FA01D8F
:102F600008950E94F31708F481E00895E89409C0D9
:102F700097FB3EF490958095709561957F4F8F4FAC
:102F80009F4F9923A9F0F92F96E9BB279395F695C2
:102F9000879577956795B795F111F8CFFAF4BB0F40
:102FA00011F460FF1BC06F5F7F4F8F4F9F4F16C0A4
:102FB000882311F096E911C0772321F09EE8872F2E
:102FC000762F05C0662371F096E8862F70E060E0EA
:102FD0002AF09A95660F771F881FDAF7880F969563
:102FE000879597F90895990F0008550FAA0BE0E807
:102FF000FEEF16161706E807F907C0F012161306BB
:10300000E407F50798F0621B730B840B950B39F4FA
:103010000A2661F0232B242B252B21F408950A2660
:1030200009F4A140A6958FEF811D811D08950E948E
:103030002A180C949B180E948D1838F00E9494183E
:1030400020F0952311F00C9484180C948A18112404
:103050000C94CF180E94AC1870F3959FC1F3950F94
:1030600050E0551F629FF001729FBB27F00DB11D0C
:10307000639FAA27F00DB11DAA1F649F6627B00D9C
:10308000A11D661F829F2227B00DA11D621F739F85
:10309000B00DA11D621F839FA00D611D221F749F93
:1030A0003327A00D611D231F849F600D211D822FDA
:1030B000762F6A2F11249F5750409AF0F1F0882301
:1030C0004AF0EE0FFF1FBB1F661F771F881F91502E
:1030D0005040A9F79E3F510580F00C9484180C9441
:1030E000CF185F3FE4F3983ED4F3869577956795C4
:1030F000B795F795E7959F5FC1F7FE2B880F911D58
:103100009695879597F9089597F99F6780E870E0FD
:1031100060E008959FEF80EC089500240A9416164D
:10312000170618060906089500240A9412161306B5
:10313000140605060895092E0394000C11F4882343
:1031400052F0BB0F40F4BF2B11F460FF04C06F5F5F
:103150007F4F8F4F9F4F089557FD9058440F551F35
:1031600059F05F3F71F04795880F97FB991F61F009
:103170009F3F79F087950895121613061406551F80
:10318000F2CF4695F1DF08C0161617061806991FEC
:10319000F1CF86957105610508940895E894BB27E1
:1031A00066277727CB0197F90895DC01CB01FC0155
:1031B000F999FECF06C0F2BDE1BDF89A319600B490
:1031C0000D9241505040B8F70895DC01A40FB51F8F
:1031D0004150504048F0CB01840F951F2E910E9422
:1031E000F61841505040D0F70895262FF999FECF98
:1031F00092BD81BDF89A019700B4021639F01FBA4A
:1032000020BD0FB6F894FA9AF99A0FBE08952F923E
:103210003F924F925F926F927F928F929F92AF9266
:10322000BF92CF92DF92EF92FF920F931F93CF93B3
:10323000DF93CDB7DEB7CA1BDB0B0FB6F894DEBF4A
:103240000FBECDBF09942A88398848885F846E8470
:103250007D848C849B84AA84B984C884DF80EE80BA
:10326000FD800C811B81AA81B981CE0FD11D0FB6C3
:10327000F894DEBF0FBECDBFED0108950E94521934
:103280000C949B180E94941858F00E948D1840F0DE
:1032900029F45F3F29F00C94841851110C94CF1835
:1032A0000C948A180E94AC1868F39923B1F3552343
:1032B00091F3951B550BBB27AA2762177307840749
:1032C00038F09F5F5F4F220F331F441FAA1FA9F3DF
:1032D00035D00E2E3AF0E0E832D091505040E695CD
:1032E000001CCAF72BD0FE2F29D0660F771F881F2E
:1032F000BB1F261737074807AB07B0E809F0BB0B21
:10330000802DBF01FF2793585F4F3AF09E3F510534
:1033100078F00C9484180C94CF185F3FE4F3983E37
:10332000D4F3869577956795B795F7959F5FC9F71D
:10333000880F911D9695879597F90895E1E0660F9E
:10334000771F881FBB1F621773078407BA0720F017
:10335000621B730B840BBA0BEE1F88F7E095089580
:103360000E94B7196894B1110C94CF1808950E9467
:10337000B41888F09F5798F0B92F9927B751B0F03B
:10338000E1F0660F771F881F991F1AF0BA95C9F7E9
:1033900014C0B13091F00E94CE18B1E008950C94A1
:1033A000CE18672F782F8827B85F39F0B93FCCF354
:1033B000869577956795B395D9F73EF49095809566
:1033C000709561957F4F8F4F9F4F089597FB072E04
:1033D00016F4009407D077FD09D00E941C1A07FC50
:1033E00005D03EF4909581959F4F08957095619515
:1033F0007F4F0895A1E21A2EAA1BBB1BFD010DC031
:10340000AA1FBB1FEE1FFF1FA217B307E407F50794
:1034100020F0A21BB30BE40BF50B661F771F881F70
:10342000991F1A9469F760957095809590959B0106
:10343000AC01BD01CF010895AA1BBB1B51E107C020
:10344000AA1FBB1FA617B70710F0A61BB70B881F34
:10345000991F5A95A9F780959095BC01CD010895C3
:10346000EE0FFF1F0590F491E02D0994FB01DC01A4
:1034700002C001900D9241505040D8F70895FB01D1
:10348000DC014150504048F001900D920020C9F7F6
:1034900001C01D9241505040E0F70895F894FFCFCD
:1034A000FFFFFF28FFC3DF02198A5C28FFCBDC0285
:1034B000198AEA28FFB3DC02198AB928FFDDAE02B7
:1034C000198AA528FFB0DF02198A7F28FF83C4026A
:1034D000198A1928FF8CAB02198A7C28FF5EAE027C
:1034E000198A2028FF21C402198AA928FF55AE0293
:1034F000198A50B003B0030000F701010006020270
:10350000001102030019020400220205002902062C
:1035100000330207003B020800430209004B025E31
:1035200000BC007701000000009502FF012C02E2C0
:10353000025D023B024F024368616E67696E67205D
:103540006C6576656C20746F20002C2066726F6D40
:1035500020000D0A00322E332E320064733138629F
:103560003230007632382D30322D32303234007223
:10357000656B7570657261746F7200476174657711
:103580006179207374617274757020636F6D706CF3
:103590006574652E003B0066726573685F66726FC6
:1035A0006D5F6F75740066726F6D5F726F6F6D73B4
:1035B000006169725F6F757400746F5F726F6F6D19
:1035C0007300434F5F6F757400434F5F726574758E
:1035D000726E004357555F6F75740073656E736F3D
:1035E00072380073656E736F72390073656E736F36
:0435F0007231300004
:00000001FF
